{
  "contractName": "DogsUpdated",
  "abi": [
    {
      "constant": true,
      "inputs": [],
      "name": "_initialized",
      "outputs": [
        {
          "name": "",
          "type": "bool"
        }
      ],
      "payable": false,
      "stateMutability": "view",
      "type": "function"
    },
    {
      "constant": true,
      "inputs": [],
      "name": "owner",
      "outputs": [
        {
          "name": "",
          "type": "address"
        }
      ],
      "payable": false,
      "stateMutability": "view",
      "type": "function"
    },
    {
      "inputs": [],
      "payable": false,
      "stateMutability": "nonpayable",
      "type": "constructor"
    },
    {
      "constant": false,
      "inputs": [
        {
          "name": "_owner",
          "type": "address"
        }
      ],
      "name": "initialize",
      "outputs": [],
      "payable": false,
      "stateMutability": "nonpayable",
      "type": "function"
    },
    {
      "constant": true,
      "inputs": [],
      "name": "getNumberOfDogs",
      "outputs": [
        {
          "name": "",
          "type": "uint256"
        }
      ],
      "payable": false,
      "stateMutability": "view",
      "type": "function"
    },
    {
      "constant": false,
      "inputs": [
        {
          "name": "toSet",
          "type": "uint256"
        }
      ],
      "name": "setNumberOfDogs",
      "outputs": [],
      "payable": false,
      "stateMutability": "nonpayable",
      "type": "function"
    }
  ],
  "bytecode": "0x608060405234801561001057600080fd5b506100293361002e640100000000026401000000009004565b6100a9565b600560149054906101000a900460ff1615151561004a57600080fd5b80600560006101000a81548173ffffffffffffffffffffffffffffffffffffffff021916908373ffffffffffffffffffffffffffffffffffffffff1602179055506001600560146101000a81548160ff02191690831515021790555050565b61033c806100b86000396000f3fe608060405234801561001057600080fd5b5060043610610074576000357c01000000000000000000000000000000000000000000000000000000009004806314861b22146100795780631680a5ed146100a75780633072cf60146100c55780638da5cb5b146100e7578063c4d66de814610131575b600080fd5b6100a56004803603602081101561008f57600080fd5b8101908080359060200190929190505050610175565b005b6100af610217565b6040518082815260200191505060405180910390f35b6100cd61025c565b604051808215151515815260200191505060405180910390f35b6100ef61026f565b604051808273ffffffffffffffffffffffffffffffffffffffff1673ffffffffffffffffffffffffffffffffffffffff16815260200191505060405180910390f35b6101736004803603602081101561014757600080fd5b81019080803573ffffffffffffffffffffffffffffffffffffffff169060200190929190505050610295565b005b600560009054906101000a900473ffffffffffffffffffffffffffffffffffffffff1673ffffffffffffffffffffffffffffffffffffffff163373ffffffffffffffffffffffffffffffffffffffff161415156101d157600080fd5b80600060405180807f446f677300000000000000000000000000000000000000000000000000000000815250600401905090815260200160405180910390208190555050565b60008060405180807f446f6773000000000000000000000000000000000000000000000000000000008152506004019050908152602001604051809103902054905090565b600560149054906101000a900460ff1681565b600560009054906101000a900473ffffffffffffffffffffffffffffffffffffffff1681565b600560149054906101000a900460ff161515156102b157600080fd5b80600560006101000a81548173ffffffffffffffffffffffffffffffffffffffff021916908373ffffffffffffffffffffffffffffffffffffffff1602179055506001600560146101000a81548160ff0219169083151502179055505056fea165627a7a72305820ab12b57bbd8829df2cc4e72845b2b953d6e72bce7ce21e4f53c6b3803c3b64e00029",
  "source": "// SPDX-License-Identifier: MIT\npragma solidity 0.5.2;\n\nimport \"./Storage.sol\";\n\ncontract DogsUpdated is Storage {\n\n  modifier onlyOwner() {\n    require(msg.sender == owner);\n    _;\n  }\n\n\n  constructor() public {\n    //owner = msg.sender;\n    initialize(msg.sender);\n  }\n\n  // only runs function once\n  function initialize(address _owner) public {\n      require(!_initialized);\n      owner = _owner;\n      _initialized = true;\n  }\n\n  function getNumberOfDogs() public view returns(uint256) {\n    return _uintStorage[\"Dogs\"];\n  }\n  function setNumberOfDogs(uint256 toSet) public onlyOwner {\n    _uintStorage[\"Dogs\"] = toSet;\n  }\n\n}",
  "sourcePath": "/home/rodrigo/Documents/IvanOnTech/upgradeable-advanced/contracts/DogsUpdated.sol",
  "compiler": {
    "name": "solc",
    "version": "0.5.2+commit.1df8f40c.Emscripten.clang"
  },
  "schemaVersion": "3.2.5",
  "updatedAt": "2020-10-06T03:26:20.772Z",
  "networkType": "ethereum",
  "devdoc": {
    "methods": {}
  },
  "userdoc": {
    "methods": {}
  }
}